:020000040800F2
:1000000048070020290200083102000833020008D6
:10001000350200083702000839020008000000001D
:100020000000000000000000000000003B0200088B
:100030003D020008000000003F02000841020008E5
:10004000430200084302000843020008430200087C
:10005000430200084302000843020008430200086C
:10006000430200084302000843020008430200085C
:10007000430200084302000843020008430200084C
:10008000430200084302000843020008430200083C
:10009000430200084302000843020008430200082C
:1000A000430200084302000843020008430200081C
:1000B000430200084302000843020008430200080C
:1000C00043020008430200084302000843020008FC
:1000D00043020008A50D0008430200082D0E000889
:1000E00043020008430200084302000843020008DC
:1000F00043020008430200084302000843020008CC
:1001000043020008430200084302000843020008BB
:1001100043020008430200084302000843020008AB
:10012000430200084302000843020008430200089B
:10013000430200084302000843020008430200088B
:10014000430200084302000843020008430200087B
:10015000430200084302000843020008430200086B
:10016000430200084302000843020008430200085B
:10017000430200084302000843020008430200084B
:10018000430200084302000800F002F800F03CF8C7
:100190000AA090E8000C82448344AAF10107DA45E2
:1001A00001D100F031F8AFF2090EBAE80F0013F0F8
:1001B000010F18BFFB1A43F0010318478811000014
:1001C000A8110000103A24BF78C878C1FAD85207A5
:1001D00024BF30C830C144BF04680C6070470000C1
:1001E0000023002400250026103A28BF78C1FBD840
:1001F000520728BF30C148BF0B6070471FB501F0E0
:100200009BF81FBD10B510BD00F033F81146FFF785
:10021000F5FF01F005F800F051F803B4FFF7F2FF25
:1002200003BC00F068FF0000094880470948004708
:10023000FEE7FEE7FEE7FEE7FEE7FEE7FEE7FEE796
:10024000FEE7FEE704480549054A064B70470000F3
:100250005D0A0008890100084801002048070020C5
:1002600048030020480300207047704770477047DC
:100270007047754600F028F8AE46050069465346BB
:1002800020F00700854618B020B5FFF7DBFFBDE87A
:1002900020404FF000064FF000074FF000084FF0ED
:1002A000000B21F00701AC46ACE8C009ACE8C0097E
:1002B000ACE8C009ACE8C0098D4670470446AFF30E
:1002C00000802046FFF7A9FF00487047E4000020A7
:1002D0002DE9F04100BF2DA12D4800F043F9002881
:1002E000F9D000F00FFB42F21071B0FBF1F201FB0C
:1002F0001200C4B200F006FB42F21071B0FBF1F242
:1003000001FB1200C5B20A21204600F057FF064645
:10031000314620A000F0C8F80A21284600F04EFF20
:10032000064631461DA000F0BFF804F15A01002036
:1003300000F0DCF92946012000F0D8F900F0A8FA15
:100340005A21002000F0D2F90021012000F0CEF95E
:100350004FF4FA7000F0F0FE00F09AFA0DE000F0B1
:10036000B7FC07460A2100F029FF064631460DA0DA
:1003700000F09AF8642000F0DFFE0CA1044800F0C1
:10038000F1F80028EBD0BDE8F081000044543200C1
:100390001C00002074322E747874000074332E74A4
:1003A0007874000074352E74787400004F44300067
:1003B00000200149087070471C00002000200149FE
:1003C000087070471C000020F0B50A460021002389
:1003D000002400BF3DE0012505FA01F3156805EA98
:1003E00003049C4234D105684F000326BE40B54348
:1003F000056015794E00B5400668354305601579EE
:10040000012D02D01579022D16D185684F000326E3
:10041000BE40B543856055794E00B540866835438A
:100420008560456801268E40B543456045689679EC
:100430008E40B6B235434560C5684F000326BE40C6
:10044000B543C560D5794E00B540C6683543C56033
:10045000491C1029BFD3F0BDF0B5002300244D077F
:10046000ED0E02FA05F3CE1000F1200555F82650E6
:100470004E07F70E0F26BE40B543CF1000F1200601
:1004800046F82750CE1000F1200555F8265045EAD1
:100490000304CE1000F1200545F82640F0BD41834D
:1004A000704701837047000070B505460C4628462A
:1004B00000F038FD04A000F035FD204600F032FDCC
:1004C00002A000F02FFD70BD20000000FFFFFF0024
:1004D00000B587B00121880400F046F9012102200F
:1004E00000F032F907220A211B48FFF7B5FF072267
:1004F0000B211948FFF7B0FF4FF440600590022030
:100500008DF818008DF8190000208DF81A000120D0
:100510008DF81B0005A91048FFF756FF4FF4165041
:1005200001900020ADF810000C20ADF80E00002066
:10053000ADF80C00ADF80A00ADF8080001A90748B5
:1005400000F066FD0121054800F006FD0020044989
:10055000087007B000BD00000004024000480040E1
:100560001B00002010B503460A4600210AE0585C33
:10057000545CA04204D0505C2A2801D0002010BD59
:10058000481CC1B2054800788142F0DB034800787E
:10059000105C08B10020F2E70120F0E71A0000200B
:1005A00070B5002100230F22C4781CB3174C2468B7
:1005B00004F4E064C4F5E064C4F30721C1F1040469
:1005C000E3B20A4144789C40E1B28478144021436C
:1005D0000C07210E0E4C05786155047804F01F05B8
:1005E0000124AC4005786D11AD0005F1E025C5F89A
:1005F000004109E0047804F01F050124AC40054DDA
:100600000678761145F8264070BD00000CED00E03C
:1006100000E400E080E100E002490143024A116089
:10062000704700000000FA050CED00E000B58BB04B
:100630000121022000F098F80121042000F084F844
:10064000C020099002208DF8280001208DF82B0091
:1006500003208DF8290000208DF82A0009A92148DF
:10066000FFF7B2FE022206211E48FFF7F5FE022226
:1006700007211C48FFF7F0FE42F20F700790A720F9
:10068000ADF818000020ADF81A00ADF8200006A95A
:10069000154800F0DBFA6020ADF804000120ADF849
:1006A00006000020ADF8100040F2EE20039001A9F2
:1006B0000D4800F01FFA01A90B4800F063FA082169
:1006C000094800F055FA0821074800F0ADFA012169
:1006D000054800F0F7F90121034800F0FFF90BB0DD
:1006E00000BD0000001402400004004070B5054643
:1006F0000C468DB900EE104AB8EE400ADFED100A44
:1007000080EE201ABCEEC10A10EE100AC6B23146C5
:100710000C4800F096FA12E0012D10D100EE104ABC
:10072000B8EE400ADFED060A80EE201ABCEEC10AE0
:1007300010EE100AC6B23146024800F084FA70BDCD
:10074000EC51383E0004004029B1064A12680243C9
:10075000044B1A6004E0034A12688243014B1A609A
:10076000704700003038024029B1064A126802433F
:10077000044B1A6004E0034A12688243014B1A607A
:10078000704700004038024029B1064A126802430F
:10079000044B1A6004E0034A12688243014B1A605A
:1007A0007047000044380240F0B5002100220024C8
:1007B000022500260223324F3F6807F00C0121B1C9
:1007C000042905D0082937D105E02E4F076036E00F
:1007D0002D4F076033E02A4F3F1F3F68C7F3805615
:1007E000274F3F1F3F6807F03F036EB1264FB7FB0F
:1007F000F3F7DFF88CC0ACF1040CDCF800C0CCF3EC
:10080000881C07FB0CF40CE01E4FB7FBF3F7DFF876
:1008100070C0ACF1040CDCF800C0CCF3881C07FB02
:100820000CF4174F3F1F3F68C7F301477F1C7D0043
:10083000B4FBF5F7076002E0124F076000BF00BF8E
:100840000F4F3F6807F0F0010909104F7A5C076805
:10085000D74047600A4F3F6807F4E051890A0B4FC1
:100860007A5C4768D7408760054F3F6807F460416E
:10087000490B064F7A5C4768D740C760F0BD00005F
:10088000083802400024F40000127A000000002022
:1008900010B54FF480610848FFF703FE4FF4FA707B
:1008A00000F04AFC4FF480610348FFF7F8FD4FF475
:1008B000FA7000F041FC10BD001402401CB501218B
:1008C0002020FFF741FF4FF48060009001208DF859
:1008D000040002208DF8050000208DF8060001209C
:1008E0008DF8070069460648FFF76EFD4FF48061FA
:1008F0000348FFF7D4FDA82000F000FC1CBD000059
:100900000014024000BF0D480078042803D10C48B1
:1009100000780028F7D00B4800780A4949784FF44E
:10092000807212FB010007498978120202FB010064
:100930000449C978120202FB010070471A00002026
:100940001B0000201C0000200CB50020019000902E
:100950003448006840F480303249086000BF3148B4
:10096000006800F4003000900198401C019000984D
:1009700018B90198B0F5A04FF1D12A48006800F4E9
:10098000003010B10120009001E00020009000989C
:10099000012846D123484030006840F0805021496A
:1009A000403108602048006840F440401E4908601B
:1009B0001C48083000681B49083108600846006878
:1009C00040F4004008600846006840F4A050086009
:1009D0001648091F0860081F006840F08070091F52
:1009E000086000BF0F48006800F000700028F9D0D0
:1009F00040F205700E4908600A480830006820F08F
:100A000003000849083108600846006840F0020009
:100A1000086000BF03480830006800F00C00082898
:100A2000F8D10CBD00380240007000400854400767
:100A3000003C0240042808D14FF0E021096941F050
:100A400004014FF0E022116107E04FF0E021096955
:100A500021F004014FF0E0221161704710B51548F4
:100A6000006840F47000134908601348006840F0C3
:100A700001001149086000200F49083108600E4844
:100A800000680E4908400C4908600D48091D0860BF
:100A9000081F006820F48020091F08600020064914
:100AA0000C310860FFF750FF4FF0006001498039BA
:100AB000086010BD88ED00E000380240FFFFF6FE40
:100AC0001030002421B1028842F08002028004E04C
:100AD00002884FF67F731A400280704721B1028866
:100AE00042F00102028004E002884FF6FE731A40D1
:100AF0000280704770B5002400220023058C4FF659
:100B0000FE7635400584028C8388048B4FF68F7502
:100B10002C40B51E2C400D882C43751E2A408D8913
:100B20002A434D882A43104DA84202D00F4DA842B7
:100B300013D14FF6F7752A40CD892A434FF6FB753E
:100B40002A408D882A434FF6FF652B404FF6FF550C
:100B50002B400D8A2B434D8A2B43838004838D6861
:100B60004563028470BD00000000014000040140A4
:100B70000A460021018B4FF6F77319401143018398
:100B80007047000070B5002400220023058C4FF64A
:100B9000EF7635400584028C8388048B48F6FF7518
:100BA0002C404FF6FF452C400D884FF6FF7606EAA5
:100BB00005252C434FF6DF752A408D8906EA051579
:100BC0002A434D8806EA05152A43154DA84202D04E
:100BD000144DA8421DD14FF67F752A40CD894FF69E
:100BE000FF7606EA05152A434FF6BF752A408D8821
:100BF00006EA05152A434FF6FF352B404FF2FF75E5
:100C00002B400D8A06EA85052B434D8A06EA8505A9
:100C10002B43838004838D688563028470BD00004C
:100C200000000140000401400A460021018B4FF200
:100C3000FF7319404FF6FF7303EA02231943018340
:100C4000704741637047816370470000002202884B
:100C5000184B98420ED0184B98420BD0B0F1804FF1
:100C600008D0164B984205D0154B984202D0154B30
:100C7000984204D14FF68F731A404B881A43124B97
:100C8000984207D0114B984204D04FF6FF431A40C8
:100C90000B891A4302804B68C3620B880385054B9E
:100CA000984202D0044B984201D18B7A03860123EB
:100CB00083827047000001400004014000040040AE
:100CC00000080040000C00400010004000140040EC
:100CD00010B500245521104800F009FA00BF40F279
:100CE00025510D4800F044F90028F8D10A4800F0D9
:100CF000F9F94FF6FF7101EA002400BF40F22551D7
:100D0000054800F035F90028F8D1034800F0EAF969
:100D1000204484B2204610BD0044004000B587B096
:100D200001214804FFF720FD01210846FFF70CFDD3
:100D3000072202211948FFF78FFB072203211748DA
:100D4000FFF78AFB0C20059002208DF818008DF823
:100D5000190000208DF81A0001208DF81B0005A94C
:100D60000E48FFF731FB4FF4165001900020ADF80C
:100D700010000C20ADF80E000020ADF80C00ADF80E
:100D80000A00ADF8080001A9054800F041F9012169
:100D9000034800F0E1F807B000BD00000000024089
:100DA0000044004010B540F225511D4800F0E0F825
:100DB00010B31B4800F096F9C4B21A48008800F43A
:100DC0000040C8B91748008800F4804060B10A2C80
:100DD00003D000201349088020E01248008840F426
:100DE00000401049088019E00D2C06D10D480088FC
:100DF00040F480400B49088010E00A480088C0F3A6
:100E00000D0009490C5407480088401C054908801A
:100E100008460088C72801DD0020088010BD0000BA
:100E200000100140180000201C00002010B540F206
:100E30002551384800F09CF8002869D0354800F06A
:100E400051F9C4B2702C01D0712C0AD1324800780B
:100E500038B9A4F16F003049087000202F4908709C
:100E600056E02D480078012825D12C48007801282B
:100E700017DD2A480078401E2949085CFF2810D158
:100E800026480078801E085CFF280AD1FF2C08D174
:100E900022480078801E2149087000201E490870F1
:100EA00036E01F481D49097844541C480078401C0E
:100EB0001A4908702CE018480078022825D11748F4
:100EC0000078062817D115480078401E1449085CA0
:100ED000FF2810D111480078801E085CFF280AD135
:100EE000FF2C08D10D480078801E0C4908700020A6
:100EF000094908700CE00A48084909784454074831
:100F00000078401C0549087002E000200249087082
:100F100010BD0000004800401B0000201A00002007
:100F20001C00002070B50446002500260DE0615D20
:100F3000084800F0DCF8681CC5B2002601E0701C0F
:100F400086B242F210708642F9DB605D0028EED175
:100F500070BD00000048004021B1828942F4005277
:100F6000828104E082894DF6FF731A4082817047C6
:100F700070B50246002400230025002040F66A16C2
:100F8000B14200D100BFC1F3421501F01F03012699
:100F900006FA03F3012D02D19689334006E0022DB3
:100FA00002D1168A334001E0968A33400C120126A2
:100FB00006FA04F41688344013B10CB1012000E0A5
:100FC000002070BDF0B50346002400260025002057
:100FD00040F66A17B94200D100BF1846C1F3421467
:100FE00001F01F06012707FA06F5012C01D10C308C
:100FF00004E0022C01D1103000E014301AB107686F
:101000002F43076002E00768AF430760F0BD0000B0
:101010002DE9FF4705460E460024A14600BFA04625
:10102000B08900B100BF2C8A24F44054F0880443F6
:101030002C82AC8941F20C608443B088318908432A
:10104000718908430443AC81AC8A24F44074B089AC
:101050000443AC826846FFF7A7FB2048854202D0D4
:101060001F48854202D1DDF80C9001E0DDF80890C0
:10107000A88900F4004040B109EBC90000EB091059
:1010800031684900B0FBF1F707E009EBC90000EB5C
:10109000091031688900B0FBF1F76420B7FBF0F06C
:1010A00004012009642101FB1078A88900F40040A4
:1010B00040B1322000EBC800B0FBF1F000F00700B7
:1010C000044308E0322000EB08106421B0FBF1F08B
:1010D00000F00F0004432C81BDE8FF8700100140A1
:1010E0000014014001468888C0F308007047C1F32E
:1010F00008028280704700BF7047000010B50446A8
:101100006FF00400FFF796FCE11704EB5171C1F397
:10111000C701074A11701046007800EB4001C1EB8F
:10112000C0104FF6FF7101EAC0000249088010BDEF
:10113000100000201200002070B504464FF4077024
:1011400094FBF0F0C6B24FF4077094FBF0F100FB93
:10115000114085B205E04FF4077000F009F8701EE9
:10116000C6B2002EF7D115B1284600F001F870BDC7
:101170000146114A12884A434FF0E0235A61002287
:101180009A611A46126942F001021A6100BF4FF0DB
:10119000E022106900F001021AB100F48032002A46
:1011A000F5D04FF0E022126922F001024FF0E02367
:1011B0001A6100229A61704712000020F0B50246C1
:1011C0000D4616A0002601460A2D02D000270F70FA
:1011D000F0BD2AB9302701F8017B00270F70F7E72F
:1011E000002A03DA2D2701F8017B524242F21073E4
:1011F0000DE092FBF3F404B936B104F1300701F8C5
:10120000017B04FB132201260A2793FBF7F3002B33
:10121000EFDC00270F7000BFDAE7000000000000DD
:101220004FF4A060FFF7F8F9A820FFF767FF4FF42D
:10123000E13000F02BF8FFF741FBFFF76FFDFFF700
:10124000F5F9FFF745F91DE00F4800784F2816D152
:101250000D484078442812D10B488078312804D0BA
:10126000322805D0332809D105E0FFF731F805E031
:10127000FFF79EF802E0FFF7A1F800BF00BF0A20C9
:10128000FFF75AFFE0E700001C00002010B588B00F
:10129000044601210846FFF757FA01211020FFF705
:1012A00073FA072209212248FFF7D6F807220A21FC
:1012B0001F48FFF7D1F84FF4C060069002208DF868
:1012C0001C008DF81D0000208DF81E0001208DF8F7
:1012D0001F0006A91648FFF777F802940020ADF822
:1012E0000C00ADF80E00ADF81000ADF814000C20A5
:1012F000ADF8120002A90F48FFF78AFE01210D4840
:10130000FFF72AFE012240F225510A48FFF75AFE54
:1013100025208DF8040003208DF805008DF80600C7
:1013200001208DF8070001A8FFF73AF908B010BDB9
:1013300000000240001001404FF04070E1EE100A42
:101340007047000064130008000000201C0000002B
:10135000C4010008801300081C0000202C070000B6
:10136000E001000800000000010203040102030480
:10137000060708090000000000000000000000004F
:040000050800018965
:00000001FF
