:020000040800F2
:10000000900700202902000831020008330200088E
:10001000350200083702000839020008000000001D
:100020000000000000000000000000003B0200088B
:100030003D020008000000003F02000841020008E5
:10004000430200084302000843020008430200087C
:10005000430200084302000843020008430200086C
:10006000430200084302000843020008430200085C
:10007000430200084302000843020008430200084C
:10008000430200084302000843020008430200083C
:10009000430200084302000843020008430200082C
:1000A000430200084302000843020008430200081C
:1000B000430200084302000843020008430200080C
:1000C00043020008430200084302000843020008FC
:1000D00043020008ED110008B11200080D130008DA
:1000E00043020008430200084302000843020008DC
:1000F00043020008430200084302000843020008CC
:1001000043020008430200084302000843020008BB
:1001100043020008430200084302000843020008AB
:10012000430200084302000843020008430200089B
:10013000430200084302000843020008430200088B
:10014000430200084302000843020008430200087B
:10015000430200084302000843020008430200086B
:10016000430200084302000843020008430200085B
:10017000430200084302000843020008430200084B
:10018000430200084302000800F002F800F03CF8C7
:100190000AA090E8000C82448344AAF10107DA45E2
:1001A00001D100F031F8AFF2090EBAE80F0013F0F8
:1001B000010F18BFFB1A43F001031847F4150000A4
:1001C00014160000103A24BF78C878C1FAD8520734
:1001D00024BF30C830C144BF04680C6070470000C1
:1001E0000023002400250026103A28BF78C1FBD840
:1001F000520728BF30C148BF0B6070471FB501F0E0
:10020000D1FA1FBD10B510BD00F031F81146FFF74F
:10021000F5FF01F07FFA00F04FF803B4FFF7F2FFAB
:1002200003BC00F053F80000094880470948004724
:10023000FEE7FEE7FEE7FEE7FEE7FEE7FEE7FEE796
:10024000FEE7FEE704480549054A064B70470000F3
:100250007D0E000889010008900100209007002011
:100260009003002090030020704770477047754648
:1002700000F028F8AE4605006946534620F0070016
:10028000854618B020B5FFF7DDFFBDE820404FF0F0
:1002900000064FF000074FF000084FF0000B21F070
:1002A0000701AC46ACE8C009ACE8C009ACE8C0093D
:1002B000ACE8C0098D4670470446AFF30080204685
:1002C000FFF7ABFF004870472C01002001491820C0
:1002D000ABBEFEE7260002007047000070B50024A8
:1002E00000F07EF800BF33A1334800F0B9FA0028CF
:1002F000F9D000F075F800F013FD42F21071B0FB78
:10030000F1F201FB120000B22C49088000F008FD58
:1003100042F21071B0FBF1F201FB120000B2284969
:1003200008802649098888B201F0CAF9054629469D
:1003300024A000F021FA2249098888B201F0C0F90E
:100340000546294621A000F017FA1C48B0F9001014
:10035000002000F0EFFB1A48B0F90010012000F077
:10036000E9FB00F0A3FC0021084600F0E3FB0021BC
:10037000012000F0DFFB4FF4FA7001F05FF900F0AC
:1003800095FC0FE0002400F0B3FE04463CB120468B
:1003900001F096F9054629460EA000F0EDF964201B
:1003A00001F04CF90DA1044800F05AFA0028E9D0F8
:1003B00070BD0000445432003000002006000020D0
:1003C0000800002074322E747874000074332E7488
:1003D0007874000074352E74787400004F44300037
:1003E00009E009480078401E0749087000200749C5
:1003F000054A12788854044800780028F1DC00206F
:1004000003490870704700002100002030000020E0
:100410002200002070B50024FFF7E2FF012000F069
:1004200007FB0020334908800846B0F9001000207F
:1004300000F080FB4FF4FA7001F000F923E000F0C7
:1004400095F9044614F1780F00DA1CE000F08EF9FB
:100450000A2190FBF1F0142190FBF1F201FB120054
:1004600024490988084400B2224908800846B0F9A6
:100470000010002000F05EFB322001F0DFF800F0F9
:1004800075F9044600BF00F071F90328D7DC00F0CD
:100490006DF910F1030FD2DB1649098888B201F01B
:1004A0000FF90646314614A000F066F9002000F06E
:1004B000BFFA00F01DFE0546642011490880084679
:1004C000B0F90010012000F035FB00F0EFFB002137
:1004D000012000F02FFB012000F0AAFA00BF09A1C3
:1004E000094800F0BDF90028F9D0002000F0A0FA7A
:1004F00070BD00000600002074332E747874000074
:10050000080000204F4430003000002010B5FFF7F5
:1005100067FF6FF0DD005A490880002059490880C4
:100520005748B0F90010002000F004FB5548B0F91E
:100530000010012000F0FEFA012000F079FA6FF0BF
:10054000DD004F4908800EE04D48B0F90010002052
:1005500000F0F0FA1E2001F071F849480088C01C34
:1005600000B2474908804648B0F90000DD28EBDDBD
:10057000DD20434908800EE04148B0F9001000201A
:1005800000F0D8FA142001F059F83D480088C01E48
:1005900000B23B4908803A48B0F9000010F1DE0F84
:1005A000EADA00F0E3F80446002000F041FA6FF0C8
:1005B000DD00334908800EE03148B0F9001000201A
:1005C00000F0B8FA142001F039F82D480088C01C5A
:1005D00000B22B4908802A48B0F90000A042EBDBAA
:1005E0002146002000F0A6FA4FF48061264800F072
:1005F000BAF8234804800EE02148B0F9001000202A
:1006000000F098FA142001F019F81D480088C01C69
:1006100000B21B4908801A48B0F90000DD28EBDD64
:10062000DD20174908800EE01548B0F900100020C1
:1006300000F080FA142001F001F811480088C01E73
:1006400000B20F4908800E48B0F9000010F1DE0F2B
:10065000EADA00200A4908800A4908800848B0F907
:100660000010002000F066FA0648B0F900100120E2
:1006700000F060FA4FF48061034800F072F810BD9A
:10068000060000200800002000140240F0B50A46D1
:1006900000210023002400BF3DE0012505FA01F3FD
:1006A000156805EA03049C4234D105684F0003260F
:1006B000BE40B543056015794E00B5400668354328
:1006C00005601579012D02D01579022D16D18568A6
:1006D0004F000326BE40B543856055794E00B540B6
:1006E000866835438560456801268E40B543456080
:1006F000456896798E40B6B235434560C5684F006F
:100700000326BE40B543C560D5794E00B540C668E6
:100710003543C560491C1029BFD3F0BDF0B5002397
:1007200000244D07ED0E02FA05F3CE1000F120056E
:1007300055F826504E07F70E0F26BE40B543CF1092
:1007400000F1200646F82750CE1000F1200555F89C
:10075000265045EA0304CE1000F1200545F8264056
:10076000F0BD41837047018370470000014890F954
:10077000000070472B00002070B505460C46284647
:1007800000F046FE04A000F043FE204600F040FECC
:1007900002A000F03DFE70BD3D22000022FFFFFFE1
:1007A0000000000000B587B00121880400F0EAF9DC
:1007B0000121022000F0D6F907220A212548FFF77F
:1007C000ADFF07220B212348FFF7A8FF4FF440603D
:1007D000059002208DF818008DF8190000208DF882
:1007E0001A0001208DF81B0005A91A48FFF74EFFDB
:1007F0004FF4E13001900020ADF810000C20ADF86E
:100800000E000020ADF80C00ADF80A00ADF80800AD
:1008100001A9114800F080FE01210F4800F021FEDF
:1008200000200E490870012240F225510A4800F0CC
:100830004EFE27208DF8000003208DF801008DF872
:10084000020001208DF80300684600F027F807B089
:1008500000BD0000000402400048004022000020CB
:1008600010B503460A4600210AE0585C545CA042D9
:1008700004D0505C2A2801D0002010BD481CC1B211
:10088000054800788142F0DB03480078105C08B12D
:100890000020F2E70120F0E72100002070B50021E0
:1008A00000230F22C4781CB3174C246804F4E064BE
:1008B000C4F5E064C4F30721C1F10404E3B20A41C2
:1008C00044789C40E1B28478144021430C07210E07
:1008D0000E4C05786155047804F01F050124AC40E6
:1008E00005786D11AD0005F1E025C5F8004109E07E
:1008F000047804F01F050124AC40054D06787611FC
:1009000045F8264070BD00000CED00E000E400E07A
:1009100080E100E002490143024A11607047000093
:100920000000FA050CED00E000B589B001211020AF
:1009300000F038F90121084600F014F980200790F2
:1009400001208DF8200002208DF8210000208DF874
:10095000220001208DF8230007A93248FFF796FEF8
:1009600080213048FFF7FDFE4FF400600790012022
:100970008DF8200002208DF8210000208DF8220043
:1009800001208DF8230007A92648FFF77FFE4FF4CA
:1009900000612448FFF7E5FE07220A212248FFF7FD
:1009A000BDFE4FF48060059002208DF818008DF890
:1009B000190000208DF81A0001208DF81B0005A9F0
:1009C0001948FFF763FE4FF4964000900020ADF801
:1009D0000C000420ADF80A000020ADF80800ADF8C6
:1009E0000600ADF804006946104800F095FD0121AD
:1009F0000E4800F036FD012240F225510B4800F070
:100A000066FD25208DF8100003208DF811008DF86B
:100A1000120001208DF8130004A8FFF73FFF09B072
:100A200000BD000000140240000002400010014020
:100A300010B5044634B980210A48FFF792FE002021
:100A400009490870012C0CD180210648FFF78BFE64
:100A500001200549087000200449087086200449D7
:100A6000087010BD001402402C000020240000205B
:100A70002B00002000B58BB00121022000F082F88D
:100A80000121042000F06EF8C020099002208DF8AA
:100A9000280001208DF82B0003208DF8290000206C
:100AA0008DF82A0009A92148FFF7F0FD022206214E
:100AB0001E48FFF733FE022207211C48FFF72EFED7
:100AC00044F61F6007905320ADF818000020ADF8E1
:100AD0001A00ADF8200006A9154800F0C7FA6020FA
:100AE000ADF804000120ADF806000020ADF81000BC
:100AF00040F2E730039001A90D4800F00BFA01A97C
:100B00000B4800F04FFA0821094800F041FA08218B
:100B1000074800F099FA0121054800F0E3F90121A6
:100B2000034800F0EBF90BB000BD000000080240E4
:100B30000004004070B504460D463CB9684200F21E
:100B4000E73081B2064800F08CFA07E0012C05D1AD
:100B500005F2112081B2024800F085FA70BD000054
:100B60000004004029B1064A12680243044B1A608F
:100B700004E0034A12688243014B1A607047000088
:100B80003038024029B1064A12680243044B1A6009
:100B900004E0034A12688243014B1A607047000068
:100BA0004038024029B1064A12680243044B1A60D9
:100BB00004E0034A12688243014B1A607047000048
:100BC00044380240F0B5002100220024022500260E
:100BD0000223324F3F6807F00C0121B1042905D0F0
:100BE000082937D105E02E4F076036E02D4F07600A
:100BF00033E02A4F3F1F3F68C7F38056274F3F1F00
:100C00003F6807F03F036EB1264FB7FBF3F7DFF8FD
:100C10008CC0ACF1040CDCF800C0CCF3881C07FBE2
:100C20000CF40CE01E4FB7FBF3F7DFF870C0ACF12B
:100C3000040CDCF800C0CCF3881C07FB0CF4174F45
:100C40003F1F3F68C7F301477F1C7D00B4FBF5F7EA
:100C5000076002E0124F076000BF00BF0F4F3F6800
:100C600007F0F0010909104F7A5C0768D740476028
:100C70000A4F3F6807F4E051890A0B4F7A5C4768D6
:100C8000D7408760054F3F6807F46041490B064F26
:100C90007A5C4768D740C760F0BD00000838024062
:100CA0000024F40000127A000A00002010B54FF46E
:100CB00080610848FFF757FD4FF4FA7000F0BEFC62
:100CC0004FF480610348FFF74CFD4FF4FA7000F0D9
:100CD000B5FC10BD001402401CB501212020FFF717
:100CE00041FF4FF48060009001208DF80400022045
:100CF0008DF8050000208DF8060001208DF8070012
:100D000069460648FFF7C2FC4FF480610348FFF7CD
:100D100028FDA82000F074FC1CBD00000014024057
:100D200000BF0E4800780428FBD10D480078002849
:100D3000F7D10A4908700B4800780A4949784FF4FE
:100D4000807212FB010007498978120202FB010040
:100D50000449C978120202FB0100704721000020FB
:100D600022000020300000200CB5002001900090EF
:100D70003448006840F480303249086000BF314890
:100D8000006800F4003000900198401C0190009829
:100D900018B90198B0F5A04FF1D12A48006800F4C5
:100DA000003010B10120009001E000200090009878
:100DB000012846D123484030006840F08050214946
:100DC000403108602048006840F440401E490860F7
:100DD0001C48083000681B49083108600846006854
:100DE00040F4004008600846006840F4A0500860E5
:100DF0001648091F0860081F006840F08070091F2E
:100E0000086000BF0F48006800F000700028F9D0AB
:100E100040F205700E4908600A480830006820F06A
:100E200003000849083108600846006840F00200E5
:100E3000086000BF03480830006800F00C00082874
:100E4000F8D10CBD00380240007000400854400743
:100E5000003C0240042808D14FF0E021096941F02C
:100E600004014FF0E022116107E04FF0E021096931
:100E700021F004014FF0E0221161704710B51548D0
:100E8000006840F47000134908601348006840F09F
:100E900001001149086000200F49083108600E4820
:100EA00000680E4908400C4908600D48091D08609B
:100EB000081F006820F48020091F086000200649F0
:100EC0000C310860FFF750FF4FF000600149803996
:100ED000086010BD88ED00E000380240FFFFF6FE1C
:100EE0001030002421B1028842F08002028004E028
:100EF00002884FF67F731A400280704721B1028842
:100F000042F00102028004E002884FF6FE731A40AC
:100F10000280704770B5002400220023058C4FF634
:100F2000FE7635400584028C8388048B4FF68F75DE
:100F30002C40B51E2C400D882C43751E2A408D89EF
:100F40002A434D882A43104DA84202D00F4DA84293
:100F500013D14FF6F7752A40CD892A434FF6FB751A
:100F60002A408D882A434FF6FF652B404FF6FF55E8
:100F70002B400D8A2B434D8A2B43838004838D683D
:100F80004563028470BD0000000001400004014080
:100F90000A460021018B4FF6F77319401143018374
:100FA0007047000070B5002400220023058C4FF626
:100FB000EF7635400584028C8388048B48F6FF75F4
:100FC0002C404FF6FF452C400D884FF6FF7606EA81
:100FD00005252C434FF6DF752A408D8906EA051555
:100FE0002A434D8806EA05152A43154DA84202D02A
:100FF000144DA8421DD14FF67F752A40CD894FF67A
:10100000FF7606EA05152A434FF6BF752A408D88FC
:1010100006EA05152A434FF6FF352B404FF2FF75C0
:101020002B400D8A06EA85052B434D8A06EA850585
:101030002B43838004838D688563028470BD000028
:1010400000000140000401400A460021018B4FF2DC
:10105000FF7319404FF6FF7303EA0223194301831C
:101060007047416370478163704700000022028827
:10107000184B98420ED0184B98420BD0B0F1804FCD
:1010800008D0164B984205D0154B984202D0154B0C
:10109000984204D14FF68F731A404B881A43124B73
:1010A000984207D0114B984204D04FF6FF431A40A4
:1010B0000B891A4302804B68C3620B880385054B7A
:1010C000984202D0044B984201D18B7A03860123C7
:1010D000838270470000014000040140000400408A
:1010E00000080040000C00400010004000140040C8
:1010F00010B5002400200D4908700D4908700D49F5
:10110000087055210C4800F076FAFA2000F096FAA3
:10111000074800780749097801EB002084B242F2C1
:101120001070844200DD0024204610BD2000002005
:101130001E0000201F0000200044004000B587B0C2
:1011400001214804FFF71EFD01210846FFF70AFDB3
:10115000072202212348FFF7E1FA07220321214851
:10116000FFF7DCFA0C20059002208DF818008DF8AE
:10117000190000208DF81A0001208DF81B0005A928
:101180001848FFF783FA4FF4165001900020ADF88D
:1011900010000C20ADF80E000020ADF80C00ADF8EA
:1011A0000A00ADF8080001A90F4800F0B5F90121C7
:1011B0000D4800F056F9012240F225510A4800F08E
:1011C00086F926208DF8000003208DF801008DF8A7
:1011D000020001208DF803006846FFF75FFB07B0AF
:1011E00000BD0000000002400044004010B540F285
:1011F0002551264800F041F9002846D0234800F048
:10120000F5F9C4B22248007803280CDA21482049B5
:10121000097844541E480078401C1D49087001207C
:101220001D49087031E01A480078032828D10A2C9B
:1012300026D1184880780D2822D100201649087040
:10124000134908701548007801281ED1114801780B
:10125000407801EB0020783040B21149087000203E
:101260000C49087048700F48007841B20E480F4A88
:10127000127881540D480078401C0C49087004E035
:101280000020034908700449087010BD0010014097
:1012900023000020250000202D0000202C0000202D
:1012A0002B00002006000020F80000202400002071
:1012B00010B540F22551114800F0DFF8E0B140F2DE
:1012C00025510E4800F0BEF80D48007840B90B4893
:1012D00000F08CF90B4908700120094908700BE0F7
:1012E00007480078012807D1044800F07FF9064933
:1012F000087002200249087010BD00000044004040
:10130000200000201E0000201F00002010B540F229
:1013100025513B4800F0B1F8002870D0384800F063
:1013200065F9C4B2702C01D0712C07D1A4F16F0003
:101330003449087000203449087060E03148007872
:10134000012829D130480078C82825DA2E480078AD
:10135000012817DD2C480078401E2C49085CFF2826
:1013600010D129480078801E085CFF280AD1FF2C84
:1013700008D125480078801E2349087000202149A3
:1013800008703CE021482049097844541E48007800
:10139000401C1D49087032E01A480078022829D103
:1013A00019480078C82825DA17480078062817D188
:1013B00015480078401E1549085CFF2810D11248D6
:1013C0000078801E085CFF280AD1FF2C08D10E4847
:1013D0000078801E0C49087000200A4908700EE051
:1013E0000A4809490978445407480078401C0649CE
:1013F000087004E00020034908700349087010BD1C
:101400000048004022000020210000203000002081
:1014100070B50446002500260DE0615D084800F027
:10142000EAF8681CC5B2002601E0701C86B242F2E0
:1014300010708642F9DB605D0028EED170BD0000BF
:101440000048004010B50022002340F66A14A14273
:1014500000D100BF0A1201249440A3B2DC430480EF
:1014600010BD21B1828942F40052828104E0828958
:101470004DF6FF731A408281704770B50246002412
:1014800000230025002040F66A16B14200D100BFBB
:10149000C1F3421501F01F03012606FA03F3012DE3
:1014A00002D19689334006E0022D02D1168A3340DC
:1014B00001E0968A33400C12012606FA04F41688DD
:1014C000344013B10CB1012000E0002070BDF0B534
:1014D0000346002400260025002040F66A17B94282
:1014E00000D100BF1846C1F3421401F01F060127C6
:1014F00007FA06F5012C01D10C3004E0022C01D1D1
:10150000103000E014301AB107682F43076002E082
:101510000768AF430760F0BD2DE9FF4705460E465B
:101520000024A14600BFA046B08900B100BF2C8AAC
:1015300024F44054F08804432C82AC8941F20C60BE
:101540008443B08831890843718908430443AC81DE
:10155000AC8A24F44074B0890443AC826846FFF737
:1015600031FB2048854202D01F48854202D1DDF878
:101570000C9001E0DDF80890A88900F4004040B12B
:1015800009EBC90000EB091031684900B0FBF1F725
:1015900007E009EBC90000EB091031688900B0FBD6
:1015A000F1F76420B7FBF0F004012009642101FB8E
:1015B0001078A88900F4004040B1322000EBC80048
:1015C000B0FBF1F000F00700044308E0322000EB2C
:1015D00008106421B0FBF1F000F00F0004432C81EF
:1015E000BDE8FF87001001400014014001468888D3
:1015F000C0F308007047C1F3080282807047000002
:1016000010B504466FF00400FFF724FCE11704EB6B
:101610005171C1F3C701074A11701046007800EB01
:101620004001C1EBC0104FF6FF7101EAC000024952
:10163000088010BD1A0000201C00002070B5044670
:101640004FF4077094FBF0F0C6B24FF4077094FBB0
:10165000F0F100FB114085B205E04FF4077000F097
:1016600009F8701EC6B2002EF7D115B1284600F059
:1016700001F870BD0146114A12884A434FF0E02339
:101680005A6100229A611A46126942F001021A61F7
:1016900000BF4FF0E022106900F001021AB100F41F
:1016A0008032002AF5D04FF0E022126922F00102C8
:1016B0004FF0E0231A6100229A6170471C0000205D
:1016C00030B503461C464FF47A72002100BF04E097
:1016D00000200F4D6854481C81B20529F8DB002119
:1016E0000FE094FBF2F03030094D685494FBF2F0B7
:1016F00002FB104084B2481C81B20A2092FBF0F039
:1017000082B2042901DA002AEBDC014830BD000076
:10171000000000204FF4A060FFF7FCF8A820FFF7BE
:101720006FFFFFF7D9FAFFF709FDFFF7A3F9FFF7FE
:1017300039F8FFF7F9F84FF47A70FFF77FFF0020D0
:10174000154908801549088000210846FFF7F2F97D
:1017500000210120FFF7EEF91DE0114800784F2825
:1017600016D10F484078442812D10D48807831288E
:1017700004D0322805D0332809D105E0FEF7AEFDAC
:1017800005E0FEF747FE02E0FEF7C0FE00BF00BF27
:101790000A20FFF753FFE0E70600002008000020C2
:1017A000300000204FF04070E1EE100A704700005A
:1017B000D01700080000002030000000C40100081D
:1017C000001800083000002060070000E001000859
:1017D0000000000000000000000000000000010206
:1017E00003040102030406070809000000000000CA
:1017F00000000000000000000000000000000000E9
:040000050800018965
:00000001FF
